:020000020000FC
:100000000C942A000C942A030C9478030C942A0074
:100010000C942A000C942A000C9434030C942A00AB
:100020000C942A000C942A000C942A000C942A00A8
:100030000C942A000C942A000C942A000C942A0098
:100040000C942A000C942A000C942A000C942A0088
:100050000C942A0004E00EBF0FE50DBF03E00BBDBA
:100060000AEF0ABD09E00EBD00E00FBD00E109BFC7
:1000700000E807BB00E804BB02E00093510401E084
:1000800000934F0400E00093500400EC0BBF0027E6
:1000900000BD07E609B908E10AB906E800BDD0E0ED
:1000A000D0934804C0E6C09349040AE405BF0E9407
:1000B0001B037894889500914F040832D8F3083CCC
:1000C000C8F71127F0E2E02FE770FE0F0852D0E0EA
:1000D000C0E6087F000F111F000F111FC00FD11FB6
:1000E000E9910491E9910490E9911490E9912490A7
:1000F000E9913490E9914490E9915490E9916490A8
:10010000E9917490E9918490E9919490E991A49097
:10011000E991B490E991C490E991D490E991E49087
:10012000E991F490E9911491E9912491E991349144
:10013000E9914491E9915491E9916491E991749123
:10014000E9918491E9919491E991A491E991B49113
:10015000E991E491E0934C04E991E491E0934D043A
:10016000E991E491E0934E04E991F491E0914E0419
:10017000C0914C04D0914D0408BB000F000008BB97
:10018000000F000008BB000F000008BB000F0000BC
:1001900008BB000F000008BB000F0000002D08BBCB
:1001A000000F000008BB000F000008BB000F00009C
:1001B00008BB000F000008BB000F000008BB000FC9
:1001C0000000012D08BB000F000008BB000F00005D
:1001D00008BB000F000008BB000F000008BB000FA9
:1001E000000008BB000F0000022D08BB000F00003C
:1001F00008BB000F000008BB000F000008BB000F89
:10020000000008BB000F000008BB000F0000032D1A
:1002100008BB000F000008BB000F000008BB000F68
:10022000000008BB000F000008BB000F000008BB67
:10023000000F0000042D08BB000F000008BB000FDA
:10024000000008BB000F000008BB000F000008BB47
:10025000000F000008BB000F0000052D08BB000FB9
:10026000000008BB000F000008BB000F000008BB27
:10027000000F000008BB000F000008BB000F0000CB
:10028000062D08BB000F000008BB000F000008BBD4
:10029000000F000008BB000F000008BB000F0000AB
:1002A00008BB000F0000072D08BB000F000008BBB3
:1002B000000F000008BB000F000008BB000F00008B
:1002C00008BB000F000008BB000F0000082D08BB92
:1002D000000F000008BB000F000008BB000F00006B
:1002E00008BB000F000008BB000F000008BB000F98
:1002F0000000092D08BB000F000008BB000F000024
:1003000008BB000F000008BB000F000008BB000F77
:10031000000008BB000F00000A2D08BB000F000002
:1003200008BB000F000008BB000F000008BB000F57
:10033000000008BB000F000008BB000F00000B2DE1
:1003400008BB000F000008BB000F000008BB000F37
:10035000000008BB000F000008BB000F000008BB36
:10036000000F00000C2D08BB000F000008BB000FA1
:10037000000008BB000F000008BB000F000008BB16
:10038000000F000008BB000F00000D2D08BB000F80
:10039000000008BB000F000008BB000F000008BBF6
:1003A000000F000008BB000F000008BB000F00009A
:1003B0000E2D08BB000F000008BB000F000008BB9B
:1003C000000F000008BB000F000008BB000F00007A
:1003D00008BB000F00000F2D08BB000F000008BB7A
:1003E000000F000008BB000F000008BB000F00005A
:1003F00008BB000F000008BB000F000018BB110F66
:10040000000018BB110F000018BB110F000018BB33
:10041000110F000018BB110F000018BB110F0000D6
:1004200028BB220F000028BB220F000028BB220F90
:10043000000028BB220F000028BB220F000028BBB1
:10044000220F000038BB330F000038BB330F000011
:1004500038BB330F000038BB330F000038BB330FFD
:10046000000038BB330F000048BB440F000048BBFE
:10047000440F000048BB440F000048BB440F00007D
:1004800048BB440F000048BB440F000058BB550F49
:10049000000058BB550F000058BB550F000058BB5B
:1004A000550F000058BB550F000058BB550F0000FA
:1004B00068BB660F000068BB660F000068BB660F74
:1004C000000068BB660F000068BB660F000068BBD9
:1004D000660F000078BB770F000078BB770F000035
:1004E00078BB770F000078BB770F000078BB770FE1
:1004F000000078BB770F000088BB880F000088BB26
:10050000880F000088BB880F000088BB880F0000A0
:1005100088BB880F000088BB880F000098BB990F2C
:10052000000098BB990F000098BB990F000098BB82
:10053000990F000098BB990F000098BB990F00001D
:10054000A8BBAA0F0000A8BBAA0F0000A8BBAA0F57
:100550000000A8BBAA0F0000A8BBAA0F0000A8BB00
:10056000AA0F0000B8BBBB0F0000B8BBBB0F000058
:10057000B8BBBB0F0000B8BBBB0F0000B8BBBB0FC4
:100580000000B8BBBB0F0000C8BBCC0F0000C8BB4D
:10059000CC0F0000C8BBCC0F0000C8BBCC0F0000C4
:1005A000C8BBCC0F0000C8BBCC0F0000D8BBDD0F10
:1005B0000000D8BBDD0F0000D8BBDD0F0000D8BBAA
:1005C000DD0F0000D8BBDD0F0000D8BBDD0F000041
:1005D000E8BBEE0F0000E8BBEE0F0000E8BBEE0F3B
:1005E0000000E8BBEE0F0000E8BBEE0F0000E8BB28
:1005F000EE0F0000F8BBFF0F0000F8BBFF0F00007C
:10060000F8BBFF0F0000F8BBFF0F0000F8BBFF0FA7
:100610000000F8BBFF0F0000C7985F9B4BCDC09157
:100620004B04D0914A040CB10993C0934B04D0936E
:100630004A040CB93FCDD0E0D0934A04C0E6C09341
:100640004B040027112723E009931A95E9F72A950F
:10065000D9F70895C0914F04D09150042196C093CA
:100660004F04D09350041895AF93BF93CF93DF936B
:10067000EF93FF93EFB7C0915104C0FDAF9AC0FF55
:10068000AF98FEE0FA95F1F7C0914F04D091500475
:100690002196C0934F04D0935004B0E0C83FDB07CD
:1006A00019F4A1E0A0935104B0E0CB3FDB0719F4AB
:1006B000A2E0A0935104B1E0C730DB0759F4AA27A8
:1006C000A0934F04A0935004B0E0B0934804A0E678
:1006D000A0934904C0915104C1FDAF9AC1FFAF98E6
:1006E000EFBFFF91EF91DF91CF91BF91AF9118953F
:1006F000002700934F0400935004B0E0B0934804E7
:10070000A0E6A0934904DF91CF91BF91AF911895D6
:1020000000000000000000000000000000000000D0
:1020100000000000000000000000000000000000C0
:1020200000000000000000000000000000000000B0
:1020300000000000000000000000000000000000A0
:102040000000000000000000000000000000000090
:102050000000000000000000000000000000000080
:102060000000000000000000000000000000000070
:102070000000000000000000000000000000000060
:1020800000F00FFF00F00FFF00F00FFF00F00FFF58
:1020900000F00FFF00F00FFF00F00FFF00F00FFF48
:1020A00000F00FFF00F00FFF00F00FFF00F00FFF38
:1020B00000F00FFF00F00FFF00F00FFF00F00FFF28
:1020C0000000000000000000000000000000000010
:1020D0000000000000000000000000000000000000
:1020E00000000000000000000000000000000000F0
:1020F00000000000000000000000000000000000E0
:1021000000F8200840F800702000F80020007070EF
:10211000F870707070007008F8207070F8F8F8F8B7
:102120000020505020C040601040200000000000FF
:102130007020707010F830F87070006010004070FF
:102140000020F070F0F8F87888700888808888702F
:10215000F070F070F88888888888F8700070200027
:102160003070800008001068802008806000000047
:10217000B06800002000000000880010204040509F
:1021800000F00FFF00F00FFF00F00FFF00F00FFF57
:1021900000F00FFF00F00FFF00F00FFF00F00FFF47
:1021A00000F00FFF00F00FFF00F00FFF00F00FFF37
:1021B00000F00FFF00F00FFF00F00FFF00F00FFF27
:1021C0000000081C3C3C0420003C610C06162C0856
:1021D0000040202400080000000000000800490022
:1021E0001C1E007E00000401103F1C00001E223C4B
:1021F000423E083C5FFFFC78610E1C0EFF08080899
:10220000008020082088088840200020A820888896
:1022100088A88888A828500888208888A88888A83E
:102220000020505078C8A0602020A820000000089E
:102230008860888830804008888860602000208816
:1022400088504888488080808820089080D8C88836
:10225000888888882088888888880840801050006E
:1022600030088000080028988000008020000000CE
:10227000C898000020000000008800202020A8A8A6
:1022800000F00FFF00F00FFF00F00FFF00F00FFF56
:1022900000F00FFF00F00FFF00F00FFF00F00FFF46
:1022A00000F00FFF00F00FFF00F00FFF00F00FFF36
:1022B00000F00FFF00F00FFF00F00FFF00F00FFF26
:1022C0001C361C1C4242081000221212080652142E
:1022D00020481024001C1800180000021C002A00CE
:1022E0002210082032000802085222000220554223
:1022F000244A1C7A6004024482062208E31414145F
:102300000080200810D81088F01000207040D88875
:1023100088A88888A810500850708088A88888A845
:10232000002050F8A010A0404010702000000010C5
:102330009820080850F080108888600040F8100845
:102340000888488048808080882008A080A8A888C5
:1023500088888880208888885050104040108800E5
:102360002078B07068702098B060089020D0B0706D
:102370008888B078F88888888888F82020201050CD
:1023800000F00FFF00F00FFF00F00FFF00F00FFF55
:1023900000F00FFF00F00FFF00F00FFF00F00FFF45
:1023A00000F00FFF00F00FFF00F00FFF00F00FFF35
:1023B00000F00FFF00F00FFF00F00FFF00F00FFF25
:1023C0003E7F3E08A5A51008393C141010081222C3
:1023D000205010243220243E243E3E642A622A22C9
:1023E000411000104C08107F04244136041C2A9D23
:1023F000184A2AA56303FC44840A2208DD0808223F
:102400000080200878A8A0F848F8F8A820F8A8A824
:10241000F8B8B8E8E8A850F8207040F8E8E8B8B88C
:1024200000200050702040804010F8F860F8002034
:10243000A82070309008F0207078006080000810AC
:102440006888708048E0E098F82008C080A89888E4
:10245000F088F07020885088202020402010000054
:102460001088C88898887068C82008A020A8C888E4
:10247000C898C8802088888850781040001000A82C
:1024800000000000F0F0F0F00F0F0F0FFFFFFFFF54
:1024900000000000F0F0F0F00F0F0F0FFFFFFFFF44
:1024A00000000000F0F0F0F00F0F0F0FFFFFFFFF34
:1024B00000000000F0F0F0F00F0F0F0FFFFFFFFF24
:1024C0007F7F7F6B818120044622180C3E10123ED4
:1024D0002060102412184254244848242A141C4115
:1024E00041103E0C001410083E084149482214A136
:1024F000243A28A562FC00786870220EF31C1C2286
:102500000080200820D8C05028100070A840D8882B
:102510008888A8A888C050085020208888A8A88843
:10252000002000F82840A800401070206000004003
:10253000C8208008F80888408808606040F81020AB
:10254000A8F8488048808088882008A080888888EB
:1025500080A8A008208850A85020404010100000FB
:102560000078888088F82008882008C020A88888FB
:10257000B0688070208888A8200820202020005083
:1025800000000000F0F0F0F00F0F0F0FFFFFFFFF53
:1025900000000000F0F0F0F00F0F0F0FFFFFFFFF43
:1025A00000000000F0F0F0F00F0F0F0FFFFFFFFF33
:1025B00000000000F0F0F0F00F0F0F0FFFFFFFFF23
:1025C0007F3E3E7FA59910084622100A101C022269
:1025D0002250183A14204214384808242A0808497E
:1025E000635000103222087F10127F49501C2AA12C
:1025F000180A2AB96402004A16901C00F72A2A22F7
:1026000000802008108880500820002070208888D2
:102610008888A8A8888050088820008888A8A8886A
:1026200000000050F09890002020A820400060801A
:1026300088208088108888808810604020002000D2
:10264000A8884888488080888820889080888888E2
:1026500080909088208820D8882080400810000032
:102660000000C88898802088882088A020A88888B2
:1026700080088008289850A850884020202000A872
:1026800000000000F0F0F0F00F0F0F0FFFFFFFFF52
:1026900000000000F0F0F0F00F0F0F0FFFFFFFFF42
:1026A00000000000F0F0F0F00F0F0F0FFFFFFFFF32
:1026B00000000000F0F0F0F00F0F0F0FFFFFFFFF22
:1026C0003E1C1C6B99A50810393C301208020214FC
:1026D000224A2420181C2414203008241C140849E1
:1026E000223008204C7F0820082522366002559DA4
:1026F000240A1CA97BFC004429900800FF08142A26
:102700000080F8F808F800D80800F8002000707081
:10271000F87070707000D808F8202070F8F8F8F899
:102720000020005020186800104020008000600049
:102730007070F87010707080706000801000402021
:102740007088F070F0F8807888707088F8888870E9
:1027500080688870207020888820F870007000F8E9
:102760000000B070687020708870709070A88870D9
:10277000800880F0106820508870F81020400050C9
:1027800000000000F0F0F0F00F0F0F0FFFFFFFFF51
:1027900000000000F0F0F0F00F0F0F0FFFFFFFFF41
:1027A00000000000F0F0F0F00F0F0F0FFFFFFFFF31
:1027B00000000000F0F0F0F00F0F0F0FFFFFFFFF21
:1027C00008080808424204200020300C060C0208C9
:1027D0001C44422010021814200008180823083650
:1027E0006310007E0000104004422200403C224260
:1027F000420A08666004004B49601C00F7143E362C
:00000001FF
